:100000000C942A000C9447000C9447000C94470071
:100010000C9447000C9447000C9447000C94731503
:100020000C9447000C9447000C9447000C94470034
:100030000C9447000C9447000C9447000C94470024
:100040000C9447000C9447000C9447000C94470014
:100050000C94470011241FBECFE5D8E0DEBFCDBF12
:1000600010E0A0E6B0E0E8E4F9E302C005900D92EC
:10007000A839B107D9F711E0A8E9B0E001C01D9295
:10008000AF39B107E1F70E949D180C94A21C0C94A3
:100090000000EF92FF920F931F93DC011596ED91F4
:1000A000FC911697E680F7808701045F1F4FC80117
:1000B0000E94740289EC90E0B8010E94230220E0C3
:1000C000E0919800F0919900D70156969C9186890D
:1000D000981708F021E0822F1F910F91FF90EF9069
:1000E0000895FF920F931F93CF93DF9380919A000F
:1000F00090919B00892B19F5D5C0F894E091CE0022
:10010000F091CF0006811781C8010C960E947402FD
:100110007894E8012296CE010E947402F801968933
:1001200080919C00891710F490939C009F9DC001C2
:1001300011248B559F4FBE010E94230202C099E0FB
:10014000F92E8091C9008823C1F60E9427082091CA
:100150009D0030919E00821B930B9093A000809392
:100160009F0089E0F82E53C001969093A2008093DF
:10017000A100215030403093A00020939F00892B94
:1001800009F03EC020919A0030919B008091A3001D
:100190009091A40090939B0080939A003093A400C8
:1001A0002093A3002DC00580F681E02DC681D78164
:1001B0002091A1003091A2008A819B8128173907E4
:1001C00030F1F8948E010E5F1F4FC8010E94740237
:1001D0008C899D89892B21F0CE010C960E94740296
:1001E00078949E8980919C00891710F490939C00CC
:1001F0009F9DC00111248B559F4FB8010E9423027F
:10020000E0919A00F0919B008081882361F6209113
:100210009F003091A0008091A1009091A200211533
:10022000310509F0A1CF90939E0080939D0090919D
:100230009C0029E006C0992319F410929C0032C05A
:100240009150929FD0011124AB55BF4F8C918823C0
:1002500091F390939C001196ED91FC91129702807E
:10026000F381E02D1296FC93EE931197CD01039646
:10027000E817F90731F48281938112969C938E934B
:1002800011971196ED91FC9112970680F781E02D60
:10029000F0939900E093980020813181CF01678924
:1002A000F9010995DF91CF911F910F91FF9008956A
:1002B0000F931F93CF93DF93EB010091A100109157
:1002C000A200080F191F8091980090919900029642
:1002D0000E947402E0919800F091990013830283C8
:1002E0008091A1009091A200BF016E5F7F4F08171F
:1002F000190728F48091A3009091A40004C0809174
:100300009A0090919B000E944202209749F06091D0
:10031000980070919900645F7F4FCE010E94420265
:10032000DF91CF911F910F910895AF92BF92CF921D
:10033000DF92EF92FF920F931F93CF93DF936C01A5
:10034000B62EA42E8AE190E00E94DE15EC01009703
:1003500011F48FEF59C08091980090919900892BEA
:1003600021F5D0939900C093980085EA90E00E940F
:100370000F028EEA90E00E940F0227EBE22E20E0AF
:10038000F22EC7010E940F0200EC10E0C8010E948B
:100390000F0289EC90E00E940F02F0929B00E09225
:1003A0009A001093A4000093A300EB2CBB2011F043
:1003B000EE24E394198E188EEE8AAF8AFE01C19264
:1003C000D1928F01CF010E941F02CE010C960E9494
:1003D0001F02D987C887DB8BCA8B82E090E08E1919
:1003E00091099D878C879E8980919C00891710F4C4
:1003F00090939C0089E0989FC00111248B559F4FDA
:10040000B8010E94230281E0DF91CF911F910F91EB
:10041000FF90EF90DF90CF90BF90AF900895FC01D8
:100420009C012D5F3F4F328321838FEF9FEF948399
:100430008383368325833087278310820895FC01C8
:10044000118610860895AC01FC01A181B281FB01E7
:10045000B383A28314968D919C9115979583848381
:100460001496ED91FC9115977383628315967C9396
:100470006E931497FB0151874087FA0180818F5F4B
:1004800080830895CF93DF939C01EB0148815981CC
:100490008FEF4F3F580721F4F901A781B0850DC0B8
:1004A000D90113961296ED91FC9113978081918159
:1004B0004817590710F0DF01F5CF1296ED91FC9126
:1004C0001397FB83EA83D583C483BD83AC831396E0
:1004D000DC93CE93129739872887F90180818F5F4B
:1004E0008083DF91CF910895CF93DF93DC0118963D
:1004F000CD91DC91199712964D915C9113971496BA
:100500008D919C911597FA019583848314962D9172
:100510003C911597F9015383428389819A818A1707
:100520009B0711F43A83298319961C921E921897FF
:100530008881815088838881DF91CF910895FC0163
:100540000FB6F8940F92828D0F900FBE0895FC01A4
:100550000FB6F8940F92928D0F900FBE838D891B6A
:100560000895FC01828D0895FC01828D90E088231E
:1005700009F491E0892F0895FC01928D20E0838D8C
:10058000981709F421E0822F08950F931F93CF93BA
:10059000DF93EC01042F1A8D4C8D4423C1F100230D
:1005A000B1F48A819B8150E00E94991C8C8D2A8134
:1005B0003B81280F311D3B832A838C819D81281725
:1005C000390728F1888199819B838A8320C08E8195
:1005D0009F8150E00E94991C8C8D90E04427552704
:1005E000481B590B8E819F81840F951F9F838E839B
:1005F000288139818217930730F48C819D81840F83
:10060000951F9F838E83023011F4111111501F5FCB
:100610001A8F80E0DF91CF911F910F910895FC0117
:10062000562FA72F248D2223B9F086819781820F20
:10063000911D97838683248135818217930720F04B
:100640008081918197838683448D66817781852F10
:100650009A2F50E00E94991C08950F931F93CF93F7
:10066000DF93EC018A8D882341F00E811F81CE013A
:100670000E940F031F830E8381E0DF91CF911F91B2
:100680000F9108950F931F93CF93DF93EC01FB011C
:100690008A018A8D882361F18C8D2E813F81280FFC
:1006A000311D3F832E838C819D812817390720F0CF
:1006B000888199819F838E838A8D81508A8F4C8D0A
:1006C0006E817F81CF0150E00E94991CF8018081EA
:1006D000882369F48885882351F0CE0108960E940A
:1006E0004900882321F081E0F801808301C081E086
:1006F000DF91CF911F910F9108951F93CF93DF93B7
:10070000EC01142F9A8D8B8D981788F4CE0140E060
:100710000E94C502112359F48989882341F0CE0132
:1007200041960E944900482F811141E0142F812FEA
:10073000DF91CF911F910895CF93DF93EC01FB01DF
:10074000F8948A8D882371F44115510541F0619622
:10075000CA01BE010E94580178948CEF2FC0789492
:1007600080E02CC07894F8948A8D882331F18C8DA8
:100770002E813F81280F311D3F832E838C819D81E7
:100780002817390720F0888199819F838E838A8D6D
:1007900081508A8F4C8D6E817F81CF0150E00E9405
:1007A000991C8885882341F0CE0108960E94490053
:1007B000882311F08BEF01C081E07894DF91CF9115
:1007C0000895CF93DF93EC01F8940FB6F8940F924D
:1007D0008A8D9B8D0F900FBE891771F441155105BD
:1007E00041F02896CA01BE010E94580178948CEF0E
:1007F0001BC0789480E018C07894F8948A8D89178B
:1008000010F080E010C0CE0140E00E94C50289894E
:10081000882341F0CE0141960E944900882311F0BF
:100820008BEF01C081E07894DF91CF9108950E9411
:10083000CF150895EF92FF920F931F93CF93DF93FD
:10084000EC017A011A8D112311F480E01AC00D8D8C
:100850000E940F0311501A8F0F3F81F4888588235F
:1008600079F0CE0108960E945E09882349F0E114D0
:10087000F10431F081E0F701808303C00F5F0D8F39
:1008800081E0DF91CF911F910F91FF90EF9008953C
:10089000CF93DF93FC01EB01928D838D981710F0BD
:1008A00080E016C0868D9F5F928F8F3F71F48189A3
:1008B000882369F0CF0141960E945E09882339F0B0
:1008C000209729F081E0888303C08F5F868F81E0C5
:1008D000DF91CF910895EF92FF921F93CF93DF9313
:1008E000EC017A019A8D8B8D981720F0223011F04F
:1008F00080E01BC01E8D8A8DCE01422F0E94C50252
:100900001F3F81F48989882379F0CE0141960E94A6
:100910005E09882349F0E114F10431F081E0F70128
:10092000808303C01F5F1E8F81E0DF91CF911F91F5
:10093000FF90EF900895EF92FF921F93CF93DF9374
:10094000EC010FB6F8940F921E8D91E1E92EF12C77
:10095000EC0EFD1E0BC08989882351F0C7010E944F
:100960005E09882311F00E94FE0A115011169CF3B3
:100970008FEF8E8F0F900FBE0FB6F8940F921D8DD4
:1009800088E0E82EF12CEC0EFD1E0BC08885882334
:1009900051F0C7010E945E09882311F00E94FE0AEF
:1009A000115011169CF38FEF8D8F0F900FBEDF91BA
:1009B000CF911F91FF90EF9008958F929F92AF92E9
:1009C000BF92CF92DF92EF92FF920F931F93DF932C
:1009D000CF9300D000D00F92CDB7DEB77C015B0182
:1009E0005D834C8341E1C42ED12CC80ED91E20E07A
:1009F0008E010F5F1F4F34E0832E912C8C0E9D1EB5
:100A000001C021E00FB6F8940F92F701828D882380
:100A1000B9F006811781C701B5010E940F03F701E4
:100A2000178306838189882339F0C6010E945E09F5
:100A3000882311F00E9476150F900FBE81E054C0FC
:100A40008C819D81892B21F40F900FBE80E04CC0DA
:100A5000222319F4C8010E94BB0A0F900FBE0E9406
:100A600021080FB6F8940F92F701858D8F3F09F496
:100A7000158EF701868D8F3F09F4168E0F900FBEED
:100A8000C801B4010E94C60A8823F9F40FB6F8948D
:100A90000F92F701828D0F900FBE882381F46C8135
:100AA0007D81C6010E946011C7010E949B040E94C3
:100AB000E00D882309F0A5CF0E947615A2CFC701CB
:100AC0000E949B040E94E00D9CCFC7010E949B04E2
:100AD0000E94E00D0FB6F8940F92F701828D0F90EF
:100AE0000FBE882309F08DCF0F900F900F900F90BD
:100AF0000F90CF91DF911F910F91FF90EF90DF90BA
:100B0000CF90BF90AF909F908F900895AF92BF927B
:100B1000CF92DF92EF92FF920F931F93DF93CF93C9
:100B200000D000D00F92CDB7DEB78C017D836C83EF
:100B300061E1E62EF12CE80EF91E20E06E0108942A
:100B4000C11CD11C54E0A52EB12CAC0EBD1E01C0A1
:100B500021E00FB6F8940F92F801828D882389F076
:100B60008150828F8085882341F0C80108960E94B9
:100B70005E09882311F00E9476150F900FBE81E068
:100B800054C08C819D81892B21F40F900FBE80E091
:100B90004CC0222319F4C6010E94BB0A0F900FBE5D
:100BA0000E9421080FB6F8940F92F801858D8F3FAF
:100BB00009F4158EF801868D8F3F09F4168E0F907B
:100BC0000FBEC601B5010E94C60A8823F9F40FB60C
:100BD000F8940F92F801828D0F900FBE882381F454
:100BE0006C817D81C7010E946011C8010E949B0435
:100BF0000E94E00D882309F0ABCF0E947615A8CFA4
:100C0000C8010E949B040E94E00DA2CFC8010E946F
:100C10009B040E94E00D0FB6F8940F92F801828DAC
:100C20000F900FBE882309F093CF0F900F900F9075
:100C30000F900F90CF91DF911F910F91FF90EF9048
:100C4000DF90CF90BF90AF9008956F927F928F9278
:100C50009F92AF92BF92CF92DF92FF920F931F931A
:100C6000DF93CF9300D000D00F92CDB7DEB78C01C9
:100C70005B015D834C83E1E1CE2ED12CC80ED91EE1
:100C800020E04E010894811C911C74E0672E712CA9
:100C90006C0E7D1E01C021E00FB6F8940F92F80192
:100CA000F28CFF20B1F0C801B5010E940F03FA9445
:100CB000F801F28E8085882341F0C80108960E94D1
:100CC0005E09882311F00E9476150F900FBE81E017
:100CD00054C08C819D81892B21F40F900FBE80E040
:100CE0004CC0222319F4C4010E94BB0A0F900FBE0E
:100CF0000E9421080FB6F8940F92F801858D8F3F5E
:100D000009F4158EF801868D8F3F09F4168E0F9029
:100D10000FBEC401B3010E94C60A8823F9F40FB6BE
:100D2000F8940F92F801828D0F900FBE882381F402
:100D30006C817D81C6010E946011C8010E949B04E4
:100D40000E94E00D882309F0A6CF0E947615A3CF5C
:100D5000C8010E949B040E94E00D9DCFC8010E9423
:100D60009B040E94E00D0FB6F8940F92F801828D5B
:100D70000F900FBE882309F08ECF0F900F900F9029
:100D80000F900F90CF91DF911F910F91FF90DF9007
:100D9000CF90BF90AF909F908F907F906F9008956D
:100DA0006F927F929F92AF92BF92CF92DF92EF921B
:100DB000FF920F931F93DF93CF9300D000D00F9239
:100DC000CDB7DEB78C016B015D834C83922EA8E01A
:100DD000EA2EF12CE80EF91E20E05E010894A11C19
:100DE000B11CF4E06F2E712C6C0E7D1E01C021E051
:100DF0000FB6F8940F92F801928D838D981718F022
:100E0000F2E09F16C9F4C801B601492D0E94C5023F
:100E1000982FF8018189882339F0C80141960E94F2
:100E20005E09882329F002C0992311F00E947615EB
:100E30000F900FBE81E04CC08C819D81892B19F4ED
:100E40000F900FBE44C0222319F4C5010E94BB0AB3
:100E50000F900FBE0E9421080FB6F8940F92F80170
:100E6000858D8F3F09F4158EF801868D8F3F09F42B
:100E7000168E0F900FBEC501B3010E94C60A8823CB
:100E800009F50FB6F8940F92F801928D0F900FBEEE
:100E9000F801838D981781F46C817D81C7010E94D0
:100EA0006011C8010E949B040E94E00D882309F094
:100EB0009ECF0E9476159BCFC8010E949B040E9482
:100EC000E00D95CFC8010E949B040E94E00D80E0D8
:100ED0000F900F900F900F900F90CF91DF911F9177
:100EE0000F91FF90EF90DF90CF90BF90AF909F90C9
:100EF0007F906F900895CF93DF93EC01E62F0097DA
:100F000009F44FC02B8D222309F44BC03C8D8FEF89
:100F10009FE7622F70E00E94801B832F90E068178C
:100F2000790708F43EC00FB6F8940F92329FC001C3
:100F3000112448815981840F951F9D838C831A8EBB
:100F40005B834A832B8D30E0215030408C8D90E0C4
:100F5000BC01269FC001279F900D369F900D112444
:100F6000480F591F5F834E838FEF8D8F8E8FEE2337
:100F700061F48885882389F0CE0108960E945E0975
:100F8000882359F00E94761508C0CE0108960E9469
:100F90000F02CE0141960E940F020F900FBE81E01A
:100FA00001C080E0DF91CF9108950F931F93CF93FD
:100FB000DF93182F062F882341F18FEF9FE7612FD2
:100FC00070E00E94801B802F90E068177907E8F09E
:100FD000019FC00111242FE7813E9207B0F44F9684
:100FE0000E94DE15FC01EC01009789F0002319F442
:100FF0009183808303C04F9691838083138F048FE6
:10100000CF0161E00E947B0702C0C0E0D0E0CE01CA
:10101000DF91CF911F910F9108951F93162F882371
:1010200059F0861748F060E042E00E94D507FC01C5
:10103000009721F0128F02C0E0E0F0E0CF011F9195
:1010400008958091D4008F5F8093D40008950FB6E7
:10105000F8940F922091D7003091D8000F900FBED6
:10106000C90108952091D7003091D800C901089591
:101070008091DE000895009721F48091D200909134
:10108000D3009C01275E3F4FC9010895EF92FF9264
:101090000F931F93CF93DF938091D400882309F09F
:1010A000FBC00091D7001091D8000F5F1F4F109325
:1010B000D8000093D7000115110561F520911A01A0
:1010C00030911B0180911C0190911D0190931B0197
:1010D00080931A0130931D0120931C018091DB0045
:1010E0008F5F8093DB00E0911A01F0911B018081FA
:1010F000882319F48FEF9FEF09C0E0911A01F09156
:101100001B010580F681E02D808191819093DA00AA
:101110008093D9008091D9009091DA0008171907BF
:1011200008F4A2C0FF2439E0E32EE0911A01F09107
:101130001B018081882319F48FEF9FEF0EC0E0918F
:101140001A01F0911B010580F681E02DC681D7813F
:101150008A819B810817190728F49093DA008093FD
:10116000D90083C0AA85BB854C815D818E819F811A
:10117000FA01958384832E813F81F9015383428351
:10118000BE016E5F7F4F11968D919C9112978617CD
:10119000970721F412963C932E9311971B861A867B
:1011A0008C9181508C93AC89BD891097F9F02E8574
:1011B0003F8588899989F90195838483488959896C
:1011C000FA01338322839E01245F3F4F11968D9154
:1011D0009C9112978217930721F412965C934E9379
:1011E00011971D8A1C8A8C9181508C939E898091C5
:1011F000D500891710F49093D500892F90E0FC0159
:1012000023E0EE0FFF1F2A95E1F7E80FF91FEC51DD
:10121000FF4FA181B281BD83AC8314968D919C91C7
:1012200015979F838E831496ED91FC911597738388
:10123000628315967C936E931497EE89EE9DF00170
:101240001124EC51FF4FFB87EA8780818F5F8083F9
:10125000E091D200F091D3009E898689981708F416
:1012600064CFFF24F39461CFFF24E091D200F0918A
:10127000D300E68989E0E89FF0011124EC51FF4F8B
:101280008081823010F0FF24F3948091D60088236F
:1012900069F0FF24F3940AC08091DC009091DD0096
:1012A00001969093DD008093DC00FF248F2DDF9169
:1012B000CF911F910F91FF90EF900895CF93DF93FF
:1012C000DC011596ED91FC911697C681D781AC890A
:1012D000BD894E855F8588899989FA0195838483C4
:1012E00028893989F90153834283AE01445F5F4FF6
:1012F00011968D919C9112978417950721F412965F
:101300003C932E9311971D8A1C8A8C9181508C934B
:101310008091D400882309F055C0AA85BB854C81F3
:101320005D818E819F81FA01958384832E813F8127
:10133000F90153834283AE014E5F5F4F11968D9149
:101340009C9112978417950721F412963C932E9343
:1013500011971B861A868C9181508C939E8980915F
:10136000D500891710F49093D500892F90E0FC01E7
:1013700063E0EE0FFF1F6A95E1F7E80FF91FEC51EC
:10138000FF4FA181B281BD83AC8314968D919C9156
:1013900015979F838E831496ED91FC911597538337
:1013A000428315965C934E931497EE8989E0E89FEB
:1013B000F0011124EC51FF4FFB87EA8780818F5F9A
:1013C00080831FC0A0911F01B0912001BF87AE870D
:1013D00014968D919C911597998B888B1496ED910D
:1013E000FC9115975383428315965C934E93149703
:1013F0008EE191E09D8B8C8B80911E018F5F80939D
:101400001E01E091D200F091D3009E898689891750
:1014100010F080E003C081E08093D600DF91CF918F
:101420000895CF93DF93DC01706811967C936E93DF
:1014300016962D913C9117971896CD91DC9119979E
:1014400012966D917C91139714968D919C9115979E
:10145000FB019583848314964D915C911597FA0155
:101460007383628389819A818A179B0711F45A8357
:10147000498319961C921E921897888181508883FF
:10148000E901AA85BB854C815D818E819F81FA012E
:10149000958384830E80DF81C02D5B834A83A901FD
:1014A0004E5F5F4F11968D919C911297841795070F
:1014B00021F41296DC93CE931197E9011B861A86CC
:1014C0008C9181508C939E898091D500891710F45E
:1014D0009093D500892F90E0FC0173E0EE0FFF1F81
:1014E0007A95E1F7E80FF91FEC51FF4FA181B28126
:1014F000F901B583A48314968D919C9115979783D8
:1015000086831496ED91FC9115975383428315962B
:101510005C934E931497D9015696EC91569789E0B7
:10152000E89FF0011124EC51FF4F1B96FC93EE93C2
:101530001A9780818F5F8083E091D200F091D30071
:1015400056969C918689891718F481E08093D6007D
:10155000DF91CF910895FC010FB6F8940F9280911E
:10156000DB0080838091D7009091D80092838183A3
:101570000F900FBE0895FC018091DB008083809165
:10158000D7009091D800928381830895DC01FB01FC
:101590000FB6F8940F926091D7007091D800119611
:1015A0004D915C911297208131818FEF2F3F380749
:1015B000E9F09091DB008C91981719F0641775078A
:1015C000B8F4CB01841B950B8217930788F4281B72
:1015D000390B318320838091DB008C938091D7007D
:1015E0009091D80012969C938E93119780E003C03F
:1015F0001182108281E00F900FBE089581E08093E8
:10160000D6000895E091D200F091D30084859585AD
:10161000A091D200B091D300E091D200F091D3001C
:10162000468924E030E0241B31091D963C932E931B
:101630001C970895CF92DF92EF92FF920F93CF9372
:10164000DF93EC01E114F10489F0E62FF0E0EE0FF6
:10165000FF1FEE0FFF1FE80FF91F81A192A1A3A1A9
:10166000B4A1F70180839183A283B383A62FB0E056
:10167000FE01EA0FFB1F65A182E085A30230D1F0D5
:10168000033018F40130C9F505C0033051F10430BE
:10169000A1F523C0FD01EE0FFF1FEE0FFF1FEC0FA2
:1016A000FD1F81A192A1A3A1B4A1822B932BA42BF6
:1016B000B52B0EC0FD01EE0FFF1FEE0FFF1FEC0F4D
:1016C000FD1F81A192A1A3A1B4A10196A11DB11DED
:1016D00081A392A3A3A3B4A310C0623011F480E04D
:1016E0009DC0AA0FBB1FAA0FBB1FAC0FBD1F9196B9
:1016F0002D933D934D935C939497613009F08DC089
:101700008091D400882309F055C0AA85BB854C81FF
:101710005D818E819F81FA01958384832E813F8133
:10172000F90153834283AE014E5F5F4F11968D9155
:101730009C9112978417950721F412963C932E934F
:1017400011971B861A868C9181508C939E8980916B
:10175000D500891710F49093D500892F90E0FC01F3
:10176000A3E0EE0FFF1FAA95E1F7E80FF91FEC5178
:10177000FF4FA181B281BD83AC8314968D919C9162
:1017800015979F838E831496ED91FC911597538343
:10179000428315965C934E931497EE8989E0E89FF7
:1017A000F0011124EC51FF4FFB87EA8780818F5FA6
:1017B000808321C0A0911F01B0912001BF87AE8717
:1017C00014968D919C911597998B888BCE010C96D0
:1017D0001496ED91FC9115979383828315969C93B3
:1017E0008E9314978EE191E09D8B8C8B80911E01DE
:1017F0008F5F80931E01E091D200F091D3009E890B
:101800008689891750F4C114D10419F081E0F601DA
:10181000808381E08093D60001C081E0DF91CF9189
:101820000F91FF90EF90DF90CF900895CF93DF93CB
:10183000EC01E62FBA01F0E0DC01AE0FBF1F959678
:101840002C91959782E095968C93EE0FFF1FEE0FEB
:10185000FF1FEC0FFD1F81A192A1A3A1B4A10196CE
:10186000A11DB11D81A392A3A3A3B4A3213009F0AC
:101870008CC08091D400882309F055C0AA85BB850F
:101880004C815D818E819F81FA01958384832E81B5
:101890003F81F90153834283AE014E5F5F4F119642
:1018A0008D919C9112978417950721F412963C9381
:1018B0002E9311971B861A868C9181508C939E894A
:1018C0008091D500891710F49093D500892F90E06E
:1018D000FC01A3E0EE0FFF1FAA95E1F7E80FF91F47
:1018E000EC51FF4FA181B281BD83AC8314968D91E1
:1018F0009C9115979F838E831496ED91FC9115977B
:101900005383428315965C934E931497EE8989E036
:10191000E89FF0011124EC51FF4FFB87EA8780819B
:101920008F5F808321C0A0911F01B0912001BF87EC
:10193000AE8714968D919C911597998B888BCE01CB
:101940000C961496ED91FC911597938382831596CE
:101950009C938E9314978EE191E09D8B8C8B80915C
:101960001E018F5F80931E01E091D200F091D300A1
:101970009E898689891748F46115710519F081E0FF
:10198000FB01808381E08093D600DF91CF910895A1
:10199000009721F48091D2009091D3000FB6F89473
:1019A0000F92FC01E60FF11D85A1823011F080E05D
:1019B00002C015A281E00F900FBE0895EF92FF9232
:1019C0000F931F9379018A01009721F48091D2002F
:1019D0009091D3000FB6F8940F92E62FF0E0EE0F3F
:1019E000FF1FEE0FFF1FE80FF91F21A132A143A136
:1019F00054A181A192A1A3A1B4A1E094F094009577
:101A000010958E219F21A023B12381A392A3A3A38C
:101A1000B4A30F900FBEB901CA011F910F91FF909F
:101A2000EF900895EF92FF920F93CF93DF93EC0125
:101A30000FB6F8940F92E114F10489F0E62FF0E06C
:101A4000EE0FFF1FEE0FFF1FEC0FFD1F81A192A1F4
:101A5000A3A1B4A1F70180839183A283B383A62FAE
:101A6000B0E0FE01EA0FFB1F65A182E085A3023012
:101A7000D1F0033018F40130C9F505C0033051F13D
:101A80000430A1F523C0FD01EE0FFF1FEE0FFF1F75
:101A9000EC0FFD1F81A192A1A3A1B4A1822B932BD6
:101AA000A42BB52B0EC0FD01EE0FFF1FEE0FFF1F85
:101AB000EC0FFD1F81A192A1A3A1B4A10196A11DCC
:101AC000B11D81A392A3A3A3B4A310C0623011F4EB
:101AD00080E06EC0AA0FBB1FAA0FBB1FAC0FBD1FBB
:101AE00091962D933D934D935C939497613009F0BB
:101AF0005EC0AA85BB854C815D818E819F81FA0184
:101B0000958384832E813F81F90153834283AE0103
:101B10004E5F5F4F11968D919C9112978417950798
:101B200021F412963C932E9311971B861A868C9162
:101B300081508C939E898091D500891710F49093E1
:101B4000D500892F90E0FC0133E0EE0FFF1F3A959E
:101B5000E1F7E80FF91FEC51FF4FA181B281BD837E
:101B6000AC8314968D919C9115979F838E831496C8
:101B7000ED91FC9115975383428315965C934E9398
:101B80001497EE8989E0E89FF0011124EC51FF4F92
:101B9000FB87EA8780818F5F8083E091D200F0919C
:101BA000D3009E898689891710F40E94761581E0FA
:101BB0000F900FBEDF91CF910F91FF90EF9008959E
:101BC0001F93CF93DF930FB6F8940F928091D400B8
:101BD00081508093D4008091D400882309F0C7C03D
:101BE0008091DE00882309F4C2C0C0E0D0E079E033
:101BF00061E084C0E0912301F0912401C681D78186
:101C0000AC89BD892E853F8588899989F90195839D
:101C1000848348895989FA01338322839E01245F92
:101C20003F4F11968D919C9112978217930721F443
:101C300012965C934E9311971D8A1C8A8C91815049
:101C40008C93AA85BB854C815D818E819F81FA0131
:101C5000958384832E813F81F90153834283AE01B2
:101C60004E5F5F4F11968D919C9112978417950747
:101C700021F412963C932E9311971B861A868C9111
:101C800081508C939E898091D500891710F4909390
:101C9000D500892F90E0FC0123E0EE0FFF1F2A956D
:101CA000E1F7E80FF91FEC51FF4FA181B281BD832D
:101CB000AC8314968D919C9115979F838E83149677
:101CC000ED91FC9115975383428315965C934E9347
:101CD0001497EE89E79FF0011124EC51FF4FFB8729
:101CE000EA8780818F5F8083E091D200F091D300FA
:101CF0009E898689981710F06093D60080911E0106
:101D0000882309F077CFCD2BB9F0E0911A01F0913B
:101D10001B018081882319F48FEF9FEF09C0E091A8
:101D20001A01F0911B010580F681E02D80819181DF
:101D30009093DA008093D900C091DC00D091DD004F
:101D4000209769F011E00E944608882311F0109353
:101D5000D6002197C1F71092DD001092DC0080912F
:101D6000D600882321F00E94761581E001C080E032
:101D70000F900FBEDF91CF911F9108952091D40055
:101D80002F5F2093D4002091DC003091DD00280FDC
:101D9000391F3093DD002093DC000E94E00D089590
:101DA0000F931F93CF93DF93EC018091D20090911A
:101DB000D300C817D90709F45DC0209709F45AC0A9
:101DC0000FB6F8940F928A859B858053914009F055
:101DD00041C08C899D8921E08E319207D9F1892BF0
:101DE000C9F53BC09093D500892F90E0FC0133E00A
:101DF000EE0FFF1F3A95E1F7E80FF91FEC51FF4F87
:101E0000A181B281BD83AC8314968D919C9115976D
:101E10009F838E831496ED91FC9115971383028313
:101E200015961C930E931497EE8989E0E89FF001B4
:101E30001124EC51FF4FFB87EA8780818F5F8083FD
:101E4000E091D200F091D3009E898689981710F016
:101E50000E9476150F900FBE0DC08E010E5F1F4FB2
:101E6000C8010E9474029E898091D500891708F4E8
:101E7000B9CFBACFDF91CF911F910F910895FF9203
:101E80000F931F93CF93DF93EC01F62E0091D700B1
:101E90001091D8008091D2009091D30002960E94B8
:101EA00074028FEFCF3FD807C1F5FF20B1F1A091A9
:101EB0003101B0913201E091D200F091D300B583AD
:101EC000A483E091D200F091D30014968D919C915F
:101ED0001597978386838091D2009091D3001496B2
:101EE000ED91FC9115970296938382838091D200A5
:101EF0009091D300029615969C938E931497E0913F
:101F0000D200F091D30080E391E0938782878091A3
:101F100030018F5F809330012FC0C00FD11FE0913F
:101F2000D200F091D300D383C283C017D10768F4E5
:101F300080911C0190911D016091D2007091D3009D
:101F40006E5F7F4F0E94420217C080911A019091EC
:101F50001B016091D2007091D3006E5F7F4F0E9491
:101F600042028091D9009091DA00C817D90720F475
:101F7000D093DA00C093D900DF91CF911F910F91D8
:101F8000FF9008958F929F92AF92BF92CF92DF926F
:101F9000EF92FF920F931F93CF93DF934801590164
:101FA000E7010FB6F8940F92E091D200F091D300C0
:101FB000E82EFF24EE0DFF1D85A1823061F1E09136
:101FC000D200F091D300C701880F991F880F991F85
:101FD000E80FF91F81A192A1A3A1B4A1409550954A
:101FE0006095709584239523A623B72381A392A39C
:101FF000A3A3B4A3E091D200F091D300EE0DFF1D96
:1020000081E085A3C114D10431F0C60161E00E94D2
:102010003F0F0E9476150F900FBE0FB6F8940F92E7
:10202000209799F0E091D200F091D300C701880F7A
:10203000991F880F991FE80FF91F81A192A1A3A1F1
:10204000B4A188839983AA83BB83E091D200F091E5
:10205000D300EE0DFF1D85A1823011F080E01CC081
:10206000E091D200F091D300C701880F991F880F2B
:10207000991FE80FF91F81A192A1A3A1B4A1809497
:102080009094A094B09488219921AA21BB2181A386
:1020900092A3A3A3B4A381E0E091D200F091D30076
:1020A000EE0DFF1D15A20F900FBEDF91CF911F9176
:1020B0000F91FF90EF90DF90CF90BF90AF909F90E7
:1020C0008F9008951F93CF93DF93162F0FB6F89438
:1020D0000F92E091D200F091D300C82FD0E0CE0152
:1020E000880F991F880F991FE80FF91F81A192A1EE
:1020F000A3A1B4A10097A105B10589F4E091D20094
:10210000F091D300EC0FFD1F81E085A3411551052F
:1021100031F0CA0161E00E943F0F0E9476150F90D6
:102120000FBE0FB6F8940F92E091D200F091D30059
:10213000CE01880F991F880F991FE80FF91F21A161
:1021400032A143A154A12115310541055105F9F0F2
:10215000112359F0E091D200F091D300E80FF91F5C
:1021600011A212A213A214A212C0E091D200F09107
:10217000D3002150304040405040E80FF91F21A3C8
:1021800032A343A354A32F5F3F4F4F4F5F4FE091C4
:10219000D200F091D300EC0FFD1F15A20F900FBEDF
:1021A000B901CA01DF91CF911F9108950F931F9339
:1021B0008C01CA01E091D200F091D300706875875C
:1021C0006487F801A181B281E091D200F091D3003F
:1021D000B787A687E091D200F091D30014962D9195
:1021E0003C911597318B208B2091D2003091D300F8
:1021F0001496ED91FC911597245F3F4F3383228312
:102200002091D2003091D300245F3F4F15963C932C
:102210002E931497E091D200F091D300158B048B8C
:10222000F80120812F5F208361E00E943F0F1F9102
:102230000F9108959C01009769F08091D4008F5F01
:102240008093D400C90160E00E943F0F0E94E00D1E
:10225000882311F40E94761508951F93FC01809144
:10226000D4008F5F8093D4008091D7009091D800E4
:1022700020813181620F731F8217930728F4621740
:10228000730728F010E008C06217730720F010E011
:102290008617970708F411E071836083112339F0E2
:1022A0009B01281B390BC90160E00E943F0F0E946F
:1022B000E00D882311F40E947615812F1F91089557
:1022C0000F931F938B016091D2007091D300645FD4
:1022D0007F4F0E944202C80161E00E943F0F1F91A0
:1022E0000F9108958091D400882321F081E080939C
:1022F000D60008951092D600E091D200F091D3005C
:10230000A091D200B091D3002081318157968D9158
:102310009C9158978217930760F08091D20090911A
:10232000D3006091D2007091D300675E7F4F0E940E
:102330006E1B2091D50099E001C02150299FD0014A
:102340001124AC51BF4F8C918823B9F31196ED91B4
:10235000FC9112970280F381E02D1296FC93EE938C
:102360001197CD010396E817F90731F48281938123
:1023700012969C938E9311971196ED91FC91129762
:10238000868197819093D3008093D2002093D500CB
:102390000895F8941092DF000E94151508950F9388
:1023A0001F9321C00FB6F8940F92E0912C01F09189
:1023B0002D0106811781C80102960E947402809146
:1023C000DE0081508093DE008091E2008150809396
:1023D000E2000F900FBEF8018789908D0E94CF1503
:1023E000C8010E94CF158091E2008823D9F6809120
:1023F000E4008230C0F30E947615F5CFFF920F9370
:102400001F93CF93DF93EC018A859B858053914086
:1024100009F05AC08C899D8921E08E31920709F418
:1024200053C0892B09F050C057C0E091D200F09101
:10243000D3009E898689981710F4FF2405C081E097
:102440008093D600FF24F3948E010E5F1F4FC801C6
:102450000E9474029E898091D500891710F4909390
:10246000D500892F90E0FC0133E0EE0FFF1F3A9575
:10247000E1F7E80FF91FEC51FF4FA181B281BD8355
:10248000AC8314968D919C9115979F838E8314969F
:10249000ED91FC9115971383028315961C930E936F
:1024A0001497EE8989E0E89FF0011124EC51FF4F69
:1024B000FB87EA8780818F5F808307C02C968EE13F
:1024C00091E0BE010E942302FF248F2DDF91CF9166
:1024D0001F910F91FF9008958091D400882309F4F3
:1024E000A4CFECCF0F931F93CF93DF930FB6F89445
:1024F0000F92009711F0EC0104C0C091D200D0916E
:10250000D3008E010E5F1F4FC8010E9474028C8998
:102510009D89892B21F0CE010C960E94740280E3E4
:1025200091E0B8010E9423028DA1813009F41DA21F
:102530000F900FBE8091DF008823E1F00FB6F89472
:102540000F92E0911A01F0911B018081882319F408
:102550008FEF9FEF09C0E0911A01F0911B010580F8
:10256000F681E02D808191819093DA008093D900EB
:102570000F900FBE8091D2009091D300C817D90759
:10258000A1F48091DF00882319F00E9476150DC018
:10259000909130018091DE00981729F41092D300B9
:1025A0001092D20002C00E947211DF91CF911F9150
:1025B0000F9108950F931F93CF93DF930FB6F89465
:1025C0000F92009711F0EC0104C0C091D200D0919D
:1025D000D3008E010E5F1F4FC8010E9474028C89C8
:1025E0009D89892B21F0CE010C960E947402809166
:1025F000E3008F5F8093E3008091D2009091D3003D
:10260000C817D90759F487E291E0B8010E94230264
:102610008091E2008F5F8093E2001CC08091DE0019
:1026200081508093DE00E0911A01F0911B018081BE
:10263000882319F48FEF9FEF09C0E0911A01F09100
:102640001B010580F681E02D808191819093DA0055
:102650008093D9000F900FBE8091D2009091D3004B
:10266000C817D90739F08F89988D0E94CF15CE01F0
:102670000E94CF158091DF00882349F08091D2001D
:102680009091D300C817D90711F40E947615DF91F5
:10269000CF911F910F9108954F925F926F927F9209
:1026A0008F929F92AF92BF92CF92DF92EF92FF9262
:1026B0000F931F93CF93DF932C015B016A013901C4
:1026C0004701CA010E94DE157C01009781F086E275
:1026D00090E00E94DE15EC01009731F0F88EEF8A51
:1026E000A114B10431F416C0C7010E94CF158FEFB9
:1026F000E4C0F501DC0190E0808159968C935997F4
:102700008081882329F09F5F319611969830A1F738
:1027100018A201C0198E043008F003E00E8B62E0AD
:10272000A62EB12CAC0EBD1EC5010E941F02CE010B
:102730000C960E941F02D987C88784E090E0801B16
:1027400091099D878C87DB8BCA8B19A21AA21BA2C9
:102750001CA21DA20894C108D108C7018C0D9D1DA3
:10276000B201A3010E949814998388838114910473
:1027700019F0F401D183C0830FB6F8940F928091C1
:10278000DE008F5F8093DE008091D2009091D300B5
:10279000892BD1F5D093D300C093D2008091DE0075
:1027A000813009F041C084EE90E00E940F028DEE6E
:1027B00090E00E940F0286EF90E00E940F028FEFE0
:1027C00090E00E940F0258E0E52E51E0F52EC7017F
:1027D0000E940F0201E111E0C8010E940F028EE188
:1027E00091E00E940F0287E291E00E940F0280E3D5
:1027F00091E00E940F02F0921B01E0921A011093E7
:102800001D0100931C0110C08091DF00882361F43A
:10281000E091D200F091D30096898E89891720F03B
:10282000D093D300C093D2008091E3008F5F809358
:10283000E3009E898091D500891710F49093D5000C
:102840008E8990E0FC0143E0EE0FFF1F4A95E1F70F
:10285000E80FF91FEC51FF4FA181B281BD83AC831A
:1028600014968D919C9115979F838E831496ED916C
:10287000FC911597B382A2821596BC92AE921497E2
:10288000EE8989E0E89FF0011124EC51FF4FFB87AE
:10289000EA8780818F5F80830F900FBE8091DF0079
:1028A000882351F0E091D200F091D30096898E896F
:1028B000981710F40E94761581E0DF91CF911F9157
:1028C0000F91FF90EF90DF90CF90BF90AF909F90CF
:1028D0008F907F906F905F904F900895EF92FF924E
:1028E0000F938FEC91E160E670E045E550E020E069
:1028F00030E000E0E0EEEE2EE0E0FE2E0E944C1311
:10290000813081F4F8948FEF9FEF9093DA008093F9
:10291000D90081E08093DF001092D8001092D70098
:102920000E94E014809172000F91FF90EF90089543
:10293000FC0191E1908322E2229383E382936293EC
:102940007293129280E88293129282E0829383E0E3
:10295000829384E0829385E0829386E0829387E08D
:10296000829388E0829389E0829380E182939293BC
:1029700082E1829383E1829384E1829385E1829371
:1029800086E1829387E1829388E1829389E1829351
:1029900080E2829381E28293229383E28293429344
:1029A000529386E2829387E2829388E2829389E25D
:1029B000829380E3829381E382933197CF010895DC
:1029C0001BBC8CE78ABD8BE08EBD89B7806189BF57
:1029D000A091D200B091D300CD91CDBFDD91DEBFEB
:1029E000FF91EF91DF91CF91BF91AF919F918F9127
:1029F0007F916F915F914F913F912F911F910F9117
:102A0000FF90EF90DF90CF90BF90AF909F908F900E
:102A10007F906F905F904F903F902F901F900F90FE
:102A20000FBE0F90089581E0089508950F920FB69C
:102A3000F8940F921F9211242F923F924F925F921F
:102A40006F927F928F929F92AF92BF92CF92DF92BE
:102A5000EF92FF920F931F932F933F934F935F93A8
:102A60006F937F938F939F93AF93BF93CF93DF9396
:102A7000EF93FF93A091D200B091D3000DB60D92C9
:102A80000EB60D920E944608882311F00E94721122
:102A9000A091D200B091D300CD91CDBFDD91DEBF2A
:102AA000FF91EF91DF91CF91BF91AF919F918F9166
:102AB0007F916F915F914F913F912F911F910F9156
:102AC000FF90EF90DF90CF90BF90AF909F908F904E
:102AD0007F906F905F904F903F902F901F900F903E
:102AE0000FBE0F9008950E94161518950F920FB6FD
:102AF000F8940F921F9211242F923F924F925F925F
:102B00006F927F928F929F92AF92BF92CF92DF92FD
:102B1000EF92FF920F931F932F933F934F935F93E7
:102B20006F937F938F939F93AF93BF93CF93DF93D5
:102B3000EF93FF93A091D200B091D3000DB60D9208
:102B40000EB60D920E947211A091D200B091D300E6
:102B5000CD91CDBFDD91DEBFFF91EF91DF91CF91A0
:102B6000BF91AF919F918F917F916F915F914F91A5
:102B70003F912F911F910F91FF90EF90DF90CF9099
:102B8000BF90AF909F908F907F906F905F904F908D
:102B90003F902F901F900F900FBE0F900895CF93EE
:102BA000DF93EC01009739F00E942108CE010E94CA
:102BB000411C0E94E00DDF91CF9108950F931F9368
:102BC0008C010E942108C8010E94941B182F092F14
:102BD0000E94E00D812F902F1F910F910895DC012D
:102BE000413031F0413080F04230E1F080E0089532
:102BF000FC01229181E090E002C0880F991F6A9544
:102C0000E2F7282B20830CC0FC01229181E090E0A8
:102C100002C0880F991F6A95E2F78095822380830E
:102C200081E00895FC01329181E090E002C0880FBC
:102C3000991F6A95E2F7282F2095232320832C9152
:102C4000822B8C9381E00895FC01613031F061307A
:102C500040F0623051F080E0089531978FEF80832B
:102C600002C03197108281E00895129231968FEF61
:102C7000808381E008959FEF9ABB17BA8FE084BBF1
:102C80008BEF81BB1BBA87EF88BB95BB84E082BB0F
:102C90000895843008F075C0683008F072C0423082
:102CA00008F06FC0813009F1813030F08230B1F12D
:102CB000833009F064C04BC0442359F02BB381E04A
:102CC00090E002C0880F991F6A95E2F7282B2BBB72
:102CD00056C02BB381E090E002C0880F991F6A951F
:102CE000E2F7809582238BBB4AC0442359F028B376
:102CF00081E090E002C0880F991F6A95E2F7282BC7
:102D000028BB3DC028B381E090E002C0880F991F26
:102D10006A95E2F78095822388BB31C0442359F03D
:102D200025B381E090E002C0880F991F6A95E2F711
:102D3000282B25BB24C025B381E090E002C0880F7A
:102D4000991F6A95E2F78095822385BB18C04423BA
:102D500059F022B381E090E002C0880F991F6A9574
:102D6000E2F7282B22BB0BC022B381E090E002C027
:102D7000880F991F6A95E2F78095822382BB81E0D4
:102D8000089580E00895FA018430F8F46830E8F49A
:102D900041155105D1F0813049F0813028F0823061
:102DA00039F0833081F406C089B305C086B303C00F
:102DB00083B301C080B390E002C0959587956A9572
:102DC000E2F78170808381E0089580E008954F925A
:102DD0005F927F928F929F92AF92BF92CF92DF923B
:102DE000EF92FF920F931F93DF93CF930F92CDB784
:102DF000DEB74C01009711F410E078C081E08983C0
:102E000010E0EE24FF245E010894A11CB11C50E4E4
:102E1000452E5CE9552EF701E958FF4F7080F70108
:102E2000E558FF4FC080872D6C2D40E00E94491669
:102E300044E0D42E82E064E0A5010E94C31689819B
:102E4000882319F400E010E026C035E0D32E82E09C
:102E500065E0A5010E94C3168981882319F401E069
:102E600010E019C026E0D22E82E066E0A5010E94A3
:102E7000C3168981882319F402E010E00CC097E0A2
:102E8000D92E82E067E0A5010E94C31689818823BC
:102E9000E9F403E010E0C2010197F1F782E06D2D43
:102EA000A5010E94C31689818823C1F3F701EE0FA3
:102EB000FF1FEE0FFF1FE00FF11FE158FF4F808152
:102EC000F4018083C2010197F1F711E0872D6C2D89
:102ED00041E00E9449168981882341F00894E11C51
:102EE000F11CF4E0EF16F10409F095CF812F0F905B
:102EF000CF91DF911F910F91FF90EF90DF90CF90D6
:102F0000BF90AF909F908F907F905F904F9008956B
:102F10001F93182F80E061E040E00E94491680E096
:102F200062E040E00E944916412F4695469546953D
:102F3000417080E067E00E944916412F4695469512
:102F4000417080E066E00E944916412F469541702D
:102F500080E065E00E944916117080E064E0412F36
:102F60000E94491680E063E041E00E94491682E039
:102F70008A95F1F780E063E040E00E9449161F91D6
:102F800008951F93182F82958F700E948817812FA4
:102F90008F700E9488171F910895882321F0813037
:102FA00029F080E008C0862F805802C0862F805408
:102FB0000E94C11781E09AE69A95F1F708958CE096
:102FC0000E94C11708951F938EE591E028EC30E030
:102FD000F9013197F1F70197D9F782E00E9488173C
:102FE00088E20E94C1171AE6812F8A95F1F78DE0D9
:102FF0000E94C1171A95F1F781E00E94C11780EA7B
:103000009FE00197F1F786E00E94C1171F91089594
:103010001F93182F80E061E041E00E94491680E094
:1030200062E040E00E944916412F4695469546953C
:10303000417080E067E00E944916412F4695469511
:10304000417080E066E00E944916412F469541702C
:1030500080E065E00E944916117080E064E0412F35
:103060000E94491680E063E041E00E94491682E038
:103070008A95F1F780E063E040E00E9449161F91D5
:1030800008951F93182F82958F700E940818812F22
:103090008F700E9408181F910895CF93DF93EC0161
:1030A000009721F406C00E94411821968881882348
:1030B000D1F7DF91CF910895CF93DF93EB016115A5
:1030C000710501F18830F0F4880F880F880F805C5B
:1030D0000E94C11788810E94411889810E9441186D
:1030E0008A810E9441188B810E9441188C810E9424
:1030F00041188D810E9441188E810E9441188F8154
:103100000E94411880E060E00E94CD17DF91CF91CE
:10311000089583B78F7B83BF83B7877F83BF83B7D0
:103120008B7F83BF83B7826083BF83B78E7F83BF6C
:103130000895FC0182B780830895EF92FF920F9368
:10314000DF93CF93CDB7DEB728970FB6F894DEBFE5
:103150000FBECDBF0E943B160E9489180E94E31744
:103160000E94DF17DE011196EFE8F0E088E00190A1
:103170000D928150E1F787E0BE016F5F7F4F0E94A3
:103180005C1800E080E0602F0E94CD1787E00E946D
:1031900041180F5F0530B1F70BE080E0602F0E940F
:1031A000CD1787E00E9441180F5F0031B1F700E0B2
:1031B00081E0602F0E94CD1787E00E9441180F5FC9
:1031C0000031B1F781E061E00E940D0890939A010F
:1031D0008093990180E29BE160E070E04AE550E075
:1031E00020E030E000E0EE24FF240E944C13813008
:1031F000D9F488E29AE160E070E04EE650E020E029
:1032000030E00E944C13813079F489E199E160E06B
:1032100070E042EC51E020E030E00E944C1381303D
:1032200019F40E946E1404C085E690E00E944D18C7
:10323000FFCFEF92FF921F93CF93DF9364E0E62ED0
:10324000F12CC1E0D0E0E0E021C0F0E053E0EE0F6F
:10325000FF1F5A95E1F7CF018F599E4FDC011C9259
:1032600011961C92DF01AD59BE4F1C92DC011396E2
:103270001C921397EB59FE4F108215961C921597CE
:1032800016961C92169717961C92E22F2E2F2F5FE0
:103290002830D9F687E080933B0181E080933C01A0
:1032A0008091990190919A016FEF7FEF0E948605BE
:1032B00090E040C0892F90E0DC01AA0FBB1FA80F4F
:1032C000B91FAD5BBE4F11964C9111978C91119621
:1032D0002C91119746954695469550E065E00E94E1
:1032E000741B30E02095309527703070FA0193E020
:1032F000EE0FFF1F9A95E1F7E41BF50BE80FF11DA8
:1033000083E0EE0FFF1F8A95E1F7E20FF31FEF59FD
:10331000FE4F20818C910E94741BA701491B51090B
:10332000DE01042E02C0AA0FBB1F0A94E2F72A2B6B
:103330002083912F80917600192F1F5F981708F432
:10334000B9CF90933C01809173008F3FC9F1809178
:1033500074008F3FA9F14091740080917300209117
:10336000740046954695469550E065E00E94741BB2
:1033700030E02095309527703070FA0173E0EE0F41
:10338000FF1F7A95E1F7E41BF50BE80FF11D43E011
:10339000EE0FFF1F4A95E1F7E20FF31FEF59FE4FC3
:1033A0002081809173000E94741BA701491B510961
:1033B000DE0102C0AA0FBB1F4A95E2F72A2B208329
:1033C0008091990190919A0160E070E040E050E0B6
:1033D00020E00E94D00610923C0131C010923B01C7
:1033E00025C090E0BC0133E0660F771F3A95E1F706
:1033F000681B790B620F711D83E0660F771F8A953A
:10340000E1F76F597E4F822F0E945C1860913B015B
:103410006B5F80913C010E94CD1780913B010E941F
:10342000411880913B018F5F80933B0120913B01CC
:1034300080913C012730A8F28F5F80933C018091FE
:103440003C01882359F288EC90E00E941A11FBCECF
:10345000DF92EF92FF920F931F93DF93CF930F9220
:10346000CDB7DEB7209176001092400190E045E0A4
:1034700010C0892F90E0FC01EE0FFF1FE80FF91F2D
:10348000ED5BFE4F20832150418380913A0182837E
:10349000932F80917600392F3F5F981750F39093C8
:1034A0004001E2E2EE2E77E0D72E8E010F5F1F4F34
:1034B000FF24FA948091990190919A016FEF7FEF28
:1034C0000E9486058091760090E00197FC01EE0F46
:1034D000FF1FE80FF91FADE3B1E0ED5BFE4F83E0A6
:1034E00001900D928150E1F74091760014C0242F95
:1034F00030E0C9010197FC01EE0FFF1FE80FF91F33
:10350000ED5BFE4F8281F901EE0FFF1FE20FF31F0B
:10351000ED5BFE4F8283415051F780913A018093D9
:10352000450120E033C0822F90E0FC01EE0FFF1F29
:10353000E80FF91FED5BFE4F8281813081F0813011
:1035400028F08230A1F0833001F518C080818F5FB0
:103550008083808163E20E94741B908316C0808107
:103560008150808380818F3F81F4E0820EC0818111
:103570008F5F818381818770818307C081818150C2
:10358000818381818F3F09F4D1822F5F8091760002
:10359000281748F220934001809173008F3F21F05B
:1035A000809174008F3F89F4C8010E949918898125
:1035B00063E20E94741B90937300C8010E949918E3
:1035C00089818770809374002BC090914301809112
:1035D0007300981729F59091440180917400981711
:1035E000F9F4809176008A30B8F4809176008F5F8C
:1035F000809376008091760090E00197FC01EE0FB9
:10360000FF1FE80FF91FED5BFE4FADE3B1E083E074
:103610000D9001928150E1F7F0927300F0927400E6
:103620008091990190919A0160E070E040E050E053
:1036300020E00E94D00688EC90E00E941A113ACF58
:10364000FF920F931F93B3E0FB2E02E011E081E4A1
:1036500091E00E94E7168091990190919A016FEF95
:103660007FEF0E94860580914101863339F4809175
:103670003A018130E9F010923A011AC0843339F4EA
:1036800080913A018823A1F010933A0111C082334E
:1036900039F480913A01833059F000933A0108C01F
:1036A000853331F480913A01823011F0F0923A0181
:1036B0008091990190919A0160E070E040E050E0C3
:1036C00020E00E94D00680914101882311F01092E1
:1036D000410184E690E00E941A11B9CF80E060E0D9
:1036E00041E00E9449160895991B79E004C0991F92
:1036F000961708F0961B881F7A95C9F7809508954C
:10370000AA1BBB1B51E107C0AA1FBB1FA617B70707
:1037100010F0A61BB70B881F991F5A95A9F7809523
:103720009095BC01CD010895CF93DF93BC01823009
:10373000910510F462E070E0A0919D01B0919E01AE
:10374000ED01E0E0F0E040E050E021C088819981A7
:103750008617970769F48A819B81309719F09383C4
:10376000828304C090939E0180939D01FE0134C02A
:103770006817790738F44115510519F08417950732
:1037800008F4AC01FE018A819B819C01E90120972C
:10379000E9F641155105A9F1CA01861B970B04975B
:1037A00008F4BA01E0E0F0E02AC08D919C911197F5
:1037B00084179507F9F46417750781F412968D91B3
:1037C0009C911397309719F09383828304C0909350
:1037D0009E0180939D01FD0132964FC0CA01861B58
:1037E000970BFD01E80FF91F6193719302978D9379
:1037F0009C9343C0FD01828193819C01D901109764
:10380000A1F680919B0190919C01892B41F48091BC
:103810006E0090916F0090939C0180939B0140916A
:103820007000509171004115510541F44DB75EB7DC
:1038300080916C0090916D00481B590B20919B0169
:1038400030919C0124173507B0F4CA01821B930BF9
:103850008617970780F0AB014E5F5F4F841795077F
:1038600050F0420F531F50939C0140939B01F9016C
:103870006193719302C0E0E0F0E0CF01DF91CF915E
:103880000895CF93DF93009709F450C0EC0122977D
:103890001B821A82A0919D01B0919E01109709F19F
:1038A00040E050E0AC17BD0708F1BB83AA83FE01DE
:1038B00021913191E20FF31FAE17BF0779F48D917B
:1038C0009C911197280F391F2E5F3F4F3983288312
:1038D00012968D919C9113979B838A834115510574
:1038E00071F4D0939E01C0939D0120C012968D91DA
:1038F0009C911397AD01009711F0DC01D3CFFA0131
:10390000D383C28321913191E20FF31FCE17DF07DA
:1039100069F488819981280F391F2E5F3F4FFA0182
:10392000318320838A819B8193838283DF91CF912E
:103930000895FB01DC0102C001900D9241505040FE
:08394000D8F70895F894FFCFB9
:1039480049444C4500204E554C4C200020009F0116
:10395800000003FFFF00030202020203020100311C
:1039680032332B3435362D3738392A302F253D1F41
:083978001511151B15111F00AC
:00000001FF
